{
    "_format": "hh-sol-artifact-1",
    "contractName": "CrowdFundingFactory",
    "sourceName": "contracts/CrowdFundingFactory.sol",
    "abi": [
        {
            "inputs": [
                {
                    "internalType": "uint256",
                    "name": "",
                    "type": "uint256"
                }
            ],
            "name": "campaigns",
            "outputs": [
                {
                    "internalType": "address",
                    "name": "",
                    "type": "address"
                }
            ],
            "stateMutability": "view",
            "type": "function"
        },
        {
            "inputs": [],
            "name": "campaignsCount",
            "outputs": [
                {
                    "internalType": "uint256",
                    "name": "",
                    "type": "uint256"
                }
            ],
            "stateMutability": "view",
            "type": "function"
        },
        {
            "inputs": [
                {
                    "internalType": "string",
                    "name": "_title",
                    "type": "string"
                },
                {
                    "internalType": "uint256",
                    "name": "_target",
                    "type": "uint256"
                }
            ],
            "name": "createCampaign",
            "outputs": [
                {
                    "internalType": "address",
                    "name": "campaign",
                    "type": "address"
                }
            ],
            "stateMutability": "nonpayable",
            "type": "function"
        },
        {
            "inputs": [],
            "name": "getAllCampaigns",
            "outputs": [
                {
                    "internalType": "address[]",
                    "name": "",
                    "type": "address[]"
                }
            ],
            "stateMutability": "view",
            "type": "function"
        }
    ],
    "bytecode": "0x608060405234801561001057600080fd5b50611622806100206000396000f3fe608060405234801561001057600080fd5b506004361061004c5760003560e01c8063141961bc1461005157806344c89b651461008157806386cdf6041461009f578063f102a67c146100bd575b600080fd5b61006b600480360381019061006691906103c5565b6100ed565b60405161007891906104f0565b60405180910390f35b61008961012c565b604051610096919061055f565b60405180910390f35b6100a7610138565b6040516100b4919061050b565b60405180910390f35b6100d760048036038101906100d2919061036d565b6101c6565b6040516100e491906104f0565b60405180910390f35b600081815481106100fd57600080fd5b906000526020600020016000915054906101000a900473ffffffffffffffffffffffffffffffffffffffff1681565b60008080549050905090565b606060008054806020026020016040519081016040528092919081815260200182805480156101bc57602002820191906000526020600020905b8160009054906101000a900473ffffffffffffffffffffffffffffffffffffffff1673ffffffffffffffffffffffffffffffffffffffff1681526020019060010190808311610172575b5050505050905090565b600080604051806020016101d990610301565b6020820181038252601f19601f82011660405250905060004260405160200161020291906104d5565b604051602081830303815290604052805190602001209050808251602084016000f592508273ffffffffffffffffffffffffffffffffffffffff1663f102a67c8787876040518463ffffffff1660e01b81526004016102639392919061052d565b600060405180830381600087803b15801561027d57600080fd5b505af1158015610291573d6000803e3d6000fd5b505050506000839080600181540180825580915050600190039060005260206000200160009091909190916101000a81548173ffffffffffffffffffffffffffffffffffffffff021916908373ffffffffffffffffffffffffffffffffffffffff16021790555050509392505050565b610fab8061064283390190565b60008083601f84011261032057600080fd5b8235905067ffffffffffffffff81111561033957600080fd5b60208301915083600182028301111561035157600080fd5b9250929050565b6000813590506103678161062a565b92915050565b60008060006040848603121561038257600080fd5b600084013567ffffffffffffffff81111561039c57600080fd5b6103a88682870161030e565b935093505060206103bb86828701610358565b9150509250925092565b6000602082840312156103d757600080fd5b60006103e584828501610358565b91505092915050565b60006103fa8383610406565b60208301905092915050565b61040f816105c4565b82525050565b61041e816105c4565b82525050565b600061042f8261058a565b61043981856105a2565b93506104448361057a565b8060005b8381101561047557815161045c88826103ee565b975061046783610595565b925050600181019050610448565b5085935050505092915050565b600061048e83856105b3565b935061049b838584610600565b6104a483610619565b840190509392505050565b6104b8816105f6565b82525050565b6104cf6104ca826105f6565b61060f565b82525050565b60006104e182846104be565b60208201915081905092915050565b60006020820190506105056000830184610415565b92915050565b600060208201905081810360008301526105258184610424565b905092915050565b60006040820190508181036000830152610548818587610482565b905061055760208301846104af565b949350505050565b600060208201905061057460008301846104af565b92915050565b6000819050602082019050919050565b600081519050919050565b6000602082019050919050565b600082825260208201905092915050565b600082825260208201905092915050565b60006105cf826105d6565b9050919050565b600073ffffffffffffffffffffffffffffffffffffffff82169050919050565b6000819050919050565b82818337600083830152505050565b6000819050919050565b6000601f19601f8301169050919050565b610633816105f6565b811461063e57600080fd5b5056fe60a060405234801561001057600080fd5b5061002d61002261006960201b60201c565b61007160201b60201c565b3373ffffffffffffffffffffffffffffffffffffffff1660808173ffffffffffffffffffffffffffffffffffffffff1660601b81525050610135565b600033905090565b60008060009054906101000a900473ffffffffffffffffffffffffffffffffffffffff169050816000806101000a81548173ffffffffffffffffffffffffffffffffffffffff021916908373ffffffffffffffffffffffffffffffffffffffff1602179055508173ffffffffffffffffffffffffffffffffffffffff168173ffffffffffffffffffffffffffffffffffffffff167f8be0079c531659141344cd1fd0a4f28419497f9722a3daafe3b4186f6b6457e060405160405180910390a35050565b60805160601c610e58610153600039600061047f0152610e586000f3fe6080604052600436106100955760003560e01c8063c45a015511610059578063c45a015514610161578063ca0cdea81461018c578063ed88c68e146101ca578063f102a67c146101d4578063f2fde38b146101fd5761009c565b80633ccfd60b1461009e5780634a79d50c146100b5578063715018a6146100e05780638da5cb5b146100f75780639bad8217146101225761009c565b3661009c57005b005b3480156100aa57600080fd5b506100b3610226565b005b3480156100c157600080fd5b506100ca6102f0565b6040516100d79190610aae565b60405180910390f35b3480156100ec57600080fd5b506100f561037e565b005b34801561010357600080fd5b5061010c610392565b6040516101199190610a6a565b60405180910390f35b34801561012e57600080fd5b5061014960048036038101906101449190610917565b6103bb565b60405161015893929190610ad0565b60405180910390f35b34801561016d57600080fd5b5061017661047d565b6040516101839190610a6a565b60405180910390f35b34801561019857600080fd5b506101b360048036038101906101ae9190610896565b6104a1565b6040516101c1929190610a85565b60405180910390f35b6101d26104d2565b005b3480156101e057600080fd5b506101fb60048036038101906101f691906108bf565b610593565b005b34801561020957600080fd5b50610224600480360381019061021f9190610896565b6105b1565b005b61022e610635565b6000610238610392565b9050600047905060008273ffffffffffffffffffffffffffffffffffffffff168260405161026590610a55565b60006040518083038185875af1925050503d80600081146102a2576040519150601f19603f3d011682016040523d82523d6000602084013e6102a7565b606091505b50509050806102eb576040517f08c379a00000000000000000000000000000000000000000000000000000000081526004016102e290610b2e565b60405180910390fd5b505050565b600180546102fd90610c86565b80601f016020809104026020016040519081016040528092919081815260200182805461032990610c86565b80156103765780601f1061034b57610100808354040283529160200191610376565b820191906000526020600020905b81548152906001019060200180831161035957829003601f168201915b505050505081565b610386610635565b61039060006106b3565b565b60008060009054906101000a900473ffffffffffffffffffffffffffffffffffffffff16905090565b600481815481106103cb57600080fd5b90600052602060002090600302016000915090508060000180546103ee90610c86565b80601f016020809104026020016040519081016040528092919081815260200182805461041a90610c86565b80156104675780601f1061043c57610100808354040283529160200191610467565b820191906000526020600020905b81548152906001019060200180831161044a57829003601f168201915b5050505050908060010154908060020154905083565b7f000000000000000000000000000000000000000000000000000000000000000081565b60056020528060005260406000206000915090508060000160009054906101000a900460ff16908060010154905082565b60003411610515576040517f08c379a000000000000000000000000000000000000000000000000000000000815260040161050c90610b6e565b60405180910390fd5b6000600560003373ffffffffffffffffffffffffffffffffffffffff1673ffffffffffffffffffffffffffffffffffffffff168152602001908152602001600020905060018160000160006101000a81548160ff021916908315150217905550348160010160008282546105899190610bb5565b9250508190555050565b8282600191906105a492919061077f565b5080600281905550505050565b6105b9610635565b600073ffffffffffffffffffffffffffffffffffffffff168173ffffffffffffffffffffffffffffffffffffffff161415610629576040517f08c379a000000000000000000000000000000000000000000000000000000000815260040161062090610b0e565b60405180910390fd5b610632816106b3565b50565b61063d610777565b73ffffffffffffffffffffffffffffffffffffffff1661065b610392565b73ffffffffffffffffffffffffffffffffffffffff16146106b1576040517f08c379a00000000000000000000000000000000000000000000000000000000081526004016106a890610b4e565b60405180910390fd5b565b60008060009054906101000a900473ffffffffffffffffffffffffffffffffffffffff169050816000806101000a81548173ffffffffffffffffffffffffffffffffffffffff021916908373ffffffffffffffffffffffffffffffffffffffff1602179055508173ffffffffffffffffffffffffffffffffffffffff168173ffffffffffffffffffffffffffffffffffffffff167f8be0079c531659141344cd1fd0a4f28419497f9722a3daafe3b4186f6b6457e060405160405180910390a35050565b600033905090565b82805461078b90610c86565b90600052602060002090601f0160209004810192826107ad57600085556107f4565b82601f106107c657803560ff19168380011785556107f4565b828001600101855582156107f4579182015b828111156107f35782358255916020019190600101906107d8565b5b5090506108019190610805565b5090565b5b8082111561081e576000816000905550600101610806565b5090565b60008135905061083181610df4565b92915050565b60008083601f84011261084957600080fd5b8235905067ffffffffffffffff81111561086257600080fd5b60208301915083600182028301111561087a57600080fd5b9250929050565b60008135905061089081610e0b565b92915050565b6000602082840312156108a857600080fd5b60006108b684828501610822565b91505092915050565b6000806000604084860312156108d457600080fd5b600084013567ffffffffffffffff8111156108ee57600080fd5b6108fa86828701610837565b9350935050602061090d86828701610881565b9150509250925092565b60006020828403121561092957600080fd5b600061093784828501610881565b91505092915050565b61094981610c0b565b82525050565b61095881610c1d565b82525050565b600061096982610b8e565b6109738185610ba4565b9350610983818560208601610c53565b61098c81610d16565b840191505092915050565b60006109a4602683610ba4565b91506109af82610d27565b604082019050919050565b60006109c7601483610ba4565b91506109d282610d76565b602082019050919050565b60006109ea602083610ba4565b91506109f582610d9f565b602082019050919050565b6000610a0d600083610b99565b9150610a1882610dc8565b600082019050919050565b6000610a30601883610ba4565b9150610a3b82610dcb565b602082019050919050565b610a4f81610c49565b82525050565b6000610a6082610a00565b9150819050919050565b6000602082019050610a7f6000830184610940565b92915050565b6000604082019050610a9a600083018561094f565b610aa76020830184610a46565b9392505050565b60006020820190508181036000830152610ac8818461095e565b905092915050565b60006060820190508181036000830152610aea818661095e565b9050610af96020830185610a46565b610b066040830184610a46565b949350505050565b60006020820190508181036000830152610b2781610997565b9050919050565b60006020820190508181036000830152610b47816109ba565b9050919050565b60006020820190508181036000830152610b67816109dd565b9050919050565b60006020820190508181036000830152610b8781610a23565b9050919050565b600081519050919050565b600081905092915050565b600082825260208201905092915050565b6000610bc082610c49565b9150610bcb83610c49565b9250827fffffffffffffffffffffffffffffffffffffffffffffffffffffffffffffffff03821115610c0057610bff610cb8565b5b828201905092915050565b6000610c1682610c29565b9050919050565b60008115159050919050565b600073ffffffffffffffffffffffffffffffffffffffff82169050919050565b6000819050919050565b60005b83811015610c71578082015181840152602081019050610c56565b83811115610c80576000848401525b50505050565b60006002820490506001821680610c9e57607f821691505b60208210811415610cb257610cb1610ce7565b5b50919050565b7f4e487b7100000000000000000000000000000000000000000000000000000000600052601160045260246000fd5b7f4e487b7100000000000000000000000000000000000000000000000000000000600052602260045260246000fd5b6000601f19601f8301169050919050565b7f4f776e61626c653a206e6577206f776e657220697320746865207a65726f206160008201527f6464726573730000000000000000000000000000000000000000000000000000602082015250565b7f4661696c656420746f2073656e64204574686572000000000000000000000000600082015250565b7f4f776e61626c653a2063616c6c6572206973206e6f7420746865206f776e6572600082015250565b50565b7f596f75206d7573742073656e6420736f6d652045746865720000000000000000600082015250565b610dfd81610c0b565b8114610e0857600080fd5b50565b610e1481610c49565b8114610e1f57600080fd5b5056fea2646970667358221220e79d1b9139058370ab1aa0b852cc3379769925325ecae582c29842951be181ad64736f6c63430008010033a2646970667358221220a27f7aa8c4416c771db3878a53461ffe7b6c0f29528c765a26ee64b1b3e1080f64736f6c63430008010033",
    "linkReferences": {},
    "deployedLinkReferences": {}
}